:020000040800F2
:10000000900E0020712B0008D5160008D7160008A6
:10001000DB160008DF160008E316000800000000E9
:10002000000000000000000000000000E7160008CB
:10003000E916000800000000EB160008ED160008A5
:100040008B2B00088B2B00088B2B00088B2B0008B8
:100050008B2B00088B2B00088B2B00088B2B0008A8
:100060008B2B00088B2B00088B2B00088B2B000898
:100070008B2B00088B2B00088B2B00088B2B000888
:100080008B2B00088B2B00088B2B00088B2B000878
:100090008B2B00088B2B00088B2B00088B2B000868
:1000A0008B2B00088B2B00088B2B00088B2B000858
:1000B0008B2B00088B2B00088B2B00088B2B000848
:1000C0008B2B00088B2B00088B2B00088B2B000838
:1000D0008B2B00084F2B00088B2B00088B2B000864
:1000E0008B2B00088B2B00088B2B00088B2B000818
:1000F0008B2B00088B2B00088B2B00088B2B000808
:100100008B2B00088B2B00088B2B00088B2B0008F7
:100110008B2B00088B2B00088B2B00088B2B0008E7
:100120008B2B00088B2B00088B2B00088B2B0008D7
:1001300000F002F800F069F80AA090E8000C824490
:100140008344AAF10107DA4501D100F05EF8AFF26D
:10015000090EBAE80F0013F0010F18BFFB1A43F0A5
:1001600001031847884A0000A84A000010F8013B24
:100170000A4413F0030408BF10F8014B1D1108BF17
:1001800010F8015B641E05D010F8016B641E01F8C5
:10019000016BF9D1002D15D010F8014B03F00C03C1
:1001A0000C2BA1EB04040ABF10F8013BA4EB831451
:1001B000A4EB032405F1010314F8016B5B1E01F8A5
:1001C000016BF9D5914238BF10F8013BD1D370478C
:1001D0000023002400250026103A28BF78C1FBD850
:1001E000520728BF30C148BF0B607047642903F035
:1001F000B786782903F0F086732904F04380002045
:1002000070471FB51FBD10B510BD04F06DF8114645
:10021000FFF7F7FF01F01CF904F08BF803B4FFF7C8
:10022000F2FF03BC02F038FC30B502460B4600205A
:10023000002106E0545C5D5CAC4201D0012002E08C
:10024000491C0629F6DB00BF30BD30B585B0F9A1E9
:1002500003C9CDE901013B220021084601F0DAFC87
:100260003C220021102001F0D5FC0223F3A2002142
:10027000202001F05DFC39220021302001F0CAFC71
:100280003A220021402001F0C5FC03220021502029
:1002900001F0C0FC04220021602001F0BBFCECE076
:1002A0000A2002F0CCFB04A9522002F0ACF800288E
:1002B000F5D19DF811009DF8101040EA0125E0A04D
:1002C00003F0F2FD2946EBA003F0EEFDB5F5006F5B
:1002D0001CD006DCB5F5007F14D0B5F5806F1DD1BC
:1002E0000CE0B5F5884F05D0A5F588400338002807
:1002F00014D10FE0E4A003F0D7FD13E0E7A003F072
:10030000D3FD0FE0EAA003F0CFFD0BE0EDA003F07A
:10031000CBFD07E0EFA003F0C7FD03E0F2A003F080
:10032000C3FD00BF00BF03A802F097F804461CB14C
:10033000F1A003F0B9FD0BE09DF80F0000909DF8CF
:100340000E309DF80D209DF80C10F0A003F0ACFDD0
:100350009DF80F0000909DF80E309DF80D209DF83F
:100360000C10F3A003F0A0FD062203A9082001F061
:10037000DDFD0622F549082001F086FDF348C0782E
:100380000090F248837842780178F1A003F08CFD68
:1003900003A802F0D0F804461CB1F5A003F084FDD8
:1003A00002E0F8A003F080FD02F076FA04461CB1EA
:1003B000F9A003F079FD02E0FBA003F075FDFE4813
:1003C00003F072FDE14803F0CFFE50BB3922022159
:1003D000002001F01FFC3A220221102001F01AFC3B
:1003E0003B220221202001F015FC3C22022130207A
:1003F00001F010FC34220221402001F00BFC3522D8
:100400000221502001F006FC2021EC4802F0DDFC26
:1004100040F2DC5002F013FB2021E84802F0D7FC48
:100420002AE039220221002001F0F4FB3A220221C5
:10043000102001F0EFFB3B220221202001F0EAFB1B
:100440003C220221302001F0E5FB3D220221402028
:1004500001F0E0FB3E220221502001F0DBFB2021D5
:10046000D64802F0B2FC40F2DC5002F0E8FA20215B
:10047000D24802F0ACFC01E000BF11E700BF05B0BC
:1004800030BDF0B585B000276AA103C9CDE90101EF
:10049000D3E10A2002F0D3FA04A9522001F0B3FFFD
:1004A0000028F5D19DF811009DF8101040EA0126B2
:1004B000C3A003F0F9FC31466EA003F0F5FCB6F5DD
:1004C000006F1CD006DCB6F5007F14D0B6F5806F47
:1004D0001DD10CE0B6F5884F05D0A6F5884003384D
:1004E000002814D10FE068A003F0DEFC13E06BA03D
:1004F00003F0DAFC0FE06EA003F0D6FC0BE071A075
:1005000003F0D2FC07E073A003F0CEFC03E076A07A
:1005100003F0CAFC00BF00BF03A801F09EFF054620
:100520001DB175A003F0C0FC0BE09DF80F0000901A
:100530009DF80E309DF80D209DF80C1073A003F06F
:10054000B3FC9DF80F0000909DF80E309DF80D2033
:100550009DF80C1076A003F0A7FC7C48C0780090B2
:100560007A4883784278017879A003F09DFC03A84B
:1005700001F0E1FF05461DB17DA003F095FC02E00E
:1005800080A003F091FC02F087F905461DB182A01E
:1005900003F08AFC02E084A003F086FC93A003F041
:1005A00083FC0027002408E003A8005D6749095D7B
:1005B000884201D0012702E0641C042CF4DB00BF58
:1005C00007BB14220621002001F024FB152206217E
:1005D000102001F01FFB16220621202001F01AFB3B
:1005E00017220621302001F015FB2021734802F06C
:1005F000ECFB40F2DC5002F022FA20216F4802F0BE
:10060000E6FB1BE114220621002001F003FB15226A
:100610000621102001F0FEFA34220621202001F0EC
:10062000F9FA35220621302001F0F4FA202163483E
:10063000F8E00000FFFFFFFFFFFF0000494300005C
:10064000232323232323232323232323232323237A
:1006500023232323232323232323232020D0C2BF88
:10066000A8B4E6B4A2BFA8BAC5D0C5CFA23A0D0AB5
:1006700000000000BFA8C0E0D0CDA3BA2830782584
:10068000303458290D0A00004D69666172652055A5
:100690006C7472614C696768740D0A004D6966611B
:1006A0007265204F6E6528533530290D0A00000011
:1006B0004D6966617265204F6E6528533730290D8C
:1006C0000A0000004D69666172652050726F2858FB
:1006D000290D0A004D6966617265204445534669DB
:1006E00072650D0A00000000556E6B6E6F776E200C
:1006F000436172640D0A0000416E7469636F6C6C33
:10070000204572726F720D0A000000005365726915
:10071000616C204E756D6265723A25303258253015
:10072000325825303258253032580D0A000000006A
:100730002A2A2A2A2A2A2A2A2A2A2A2A2A2A3A250E
:10074000642564256425640D0A000000060000206D
:10075000434152445F494420404040404040404073
:100760004040403A25642564256425640D0A000054
:1007700053656C6563742043617264204572726FC7
:10078000720D0A0053656C656374204361726420C6
:100790004F4B0D0A0000000050636448616C7420E8
:1007A0004572726F720D0A0050636448616C742068
:1007B0004F4B0D0A00000000A84B0008000C014040
:1007C00023232323232323232323232323232323F9
:1007D00023232323232323232323232020CBA2BF2C
:1007E000A8B5C7C2BC203A0D0A000000232323236A
:1007F00023232323232323232323232323232323C9
:1008000023232323232323232323232323232323B8
:1008100023232020CBA2BFA8B5C7C2BC203A0D0A13
:100820000000000002F0D1FA40F2DC5002F007F9BB
:100830002021FE4802F0CBFA00E02AE600BF05B016
:10084000F0BD10B50C244FF47041F84802F0BFFA27
:100850004FF48051F54802F0B8FAF54800780028C6
:100860003BD04FF48051F34802F095FA01280DD0A7
:100870004FF40061EF4802F08EFA012806D04FF4E1
:100880008071EC4802F087FA012826D10020E8495F
:1008900008704FF48051E74802F07DFA012804D136
:1008A0000A24E5A003F000FB2CE04FF40061E148CE
:1008B00002F071FA012804D10024E1A003F0F4FA57
:1008C00020E04FF48071DB4802F065FA012819D16D
:1008D0000B24DDA003F0E8FA14E04FF48051D54872
:1008E00002F059FA70B94FF40061D24802F053FA9D
:1008F00040B94FF48071CF4802F04DFA10B9012091
:10090000CB4908704FF47041C84802F060FA4FF4C8
:100910000051C64802F059FACD48007800283BD073
:100920004FF48051C34802F036FA01280DD04FF43D
:100930000061C04802F02FFA012806D04FF4807100
:10094000BC4802F028FA012826D10020C0490870CE
:100950004FF48051B74802F01EFA012804D1072451
:10096000BCA003F0A1FA2CE04FF40061B14802F002
:1009700012FA012804D10824B8A003F095FA20E067
:100980004FF48071AB4802F006FA012819D109240E
:10099000B4A003F089FA14E04FF48051A54802F0A6
:1009A000FAF970B94FF40061A24802F0F4F940B9C5
:1009B0004FF480719F4802F0EEF910B90120A4496C
:1009C00008704FF47041994802F001FA4FF48041E9
:1009D000964802F0FAF9A548007878B34FF48051B0
:1009E000944802F0D8F901280DD04FF400619148E5
:1009F00002F0D1F9012806D04FF480718D4802F041
:100A0000CAF9012827D10020984908704FF4805175
:100A1000884802F0C0F9012804D1042494A003F00E
:100A200043FA2DE04FF40061824802F0B4F9012846
:100A300005D1052490A003F037FA21E00BE04FF434
:100A400080717C4802F0A7F9012819D106248CA0F6
:100A500003F02AFA14E04FF48051764802F09BF933
:100A600070B94FF40061734802F095F940B94FF442
:100A70008071704802F08FF910B901207B4908702D
:100A80004FF47041694802F0A2F94FF40041674801
:100A900002F09BF97C48007878B34FF480516548A8
:100AA00002F079F901280DD04FF40061614802F09D
:100AB00072F9012806D04FF480715E4802F06BF99C
:100AC000012827D10020704908704FF480515948FF
:100AD00002F061F9012804D101246CA003F0E4F9CB
:100AE0002DE04FF40061534802F055F9012805D17B
:100AF000022468A003F0D8F921E00BE04FF48071E4
:100B00004C4802F048F9012819D1032463A003F0EE
:100B1000CBF914E04FF48051464802F03CF970B92B
:100B20004FF40061434802F036F940B94FF4807148
:100B3000404802F030F910B90120534908702046AE
:100B400010BD2DE9FC4100270C244FF000080025C2
:100B5000002606225349002001F096F963E1FFF7D1
:100B600070FE044600221146104601F053F801229F
:100B70000021102001F04EF802220021202001F077
:100B800049F803220021302001F044F8042200211A
:100B9000402001F03FF80E220021502001F03AF8E9
:100BA0000C2C14D0052D12DC002C10DB092C0EDCD3
:100BB00004F13000C0B20DF805002907080E022329
:100BC00039A2194600F0B4FF681CC5B20C240B2CE6
:100BD00008D1681EC5B22907080E022333A21946A0
:100BE00000F0A6FF0A2C20D14FF00008002609E0F3
:100BF0001DF806002B49895D884201D04FF001089D
:100C0000701CC6B2062EF3DBB8F1000F7AD10322B6
:100C10000421002000F0FEFF04221146102000F005
:100C2000F9FF12220421202042E0A5E0000C01403F
:100C300016000020000801406B65793A2A0D0A0071
:100C40006B65793A300D0A006B65793A230D0A001D
:100C5000170000206B65793A370D0A006B65793A09
:100C6000380D0A006B65793A390D0A00180000202A
:100C70006B65793A340D0A006B65793A350D0A00D7
:100C80006B65793A360D0A00190000206B65793AD8
:100C9000310D0A006B65793A320D0A006B65793ABD
:100CA000330D0A00000000202A0000002000000090
:100CB00000F0B0FF13220421302000F0ABFF14221B
:100CC0000421402000F0A6FF15220421502000F04E
:100CD000A1FF16220421602000F09CFF17220421AE
:100CE000702000F097FF2021FE4802F06EF84FF4CC
:100CF0007A7001F0A4FE2021FA4802F068F80C2472
:100D000092E0FFE70C2403220421002000F082FF80
:100D100004221146102000F07DFF1822042120201B
:100D200000F078FF19220421302000F073FF1A220E
:100D30000421402000F06EFF0F220421502000F01B
:100D400069FF01220421602000F064FF02220421D7
:100D5000702000F05FFF2021E24802F036F84FF4E7
:100D60007A7001F06CFE2021DE4802F030F800F0CD
:100D7000C4FE0025781CC7B2032F54DB0C2400F0FE
:100D8000BCFE01220021084600F044FF022200219F
:100D9000102000F03FFF1C220021202000F03AFF2D
:100DA0001D220021302000F035FF1E2200214020AE
:100DB00000F030FF1F220021502000F02BFF2022E6
:100DC0000221002000F026FF0223AFF290721946A4
:100DD000102000F0ADFE21220221202000F01AFF99
:100DE00022220221302000F015FF23220221402080
:100DF00000F010FF14220221502000F00BFF1522FA
:100E00000221602000F006FF2021B64801F0DDFF3E
:100E100040F2DC5001F013FE2021B24801F0D7FF70
:100E2000FFF72FFB00E09AE600BFBDE8FC8170B53C
:100E3000064600240C257CE0FFF703FD05460C2D3B
:100E40002AD0052C28DC002D26DB092D24DC2146A8
:100E5000A5A003F029F8A7A003F026F8012E0CD1D5
:100E600005F13000A74908552107080E0223AFF20B
:100E7000C812194600F05CFE0BE005F13000A249F3
:100E800008552107080E0223AFF2E412062100F0F4
:100E90004FFE601CC4B20C250B2D12D1601EC4B2D3
:100EA000012E07D12107080E022398A2194600F04F
:100EB0003FFE06E02107080E022394A2062100F05F
:100EC00037FE0A2D30D1062C2EDA012E2CD103222A
:100ED0000421002000F09EFE04221146102000F0A4
:100EE00099FE27220421202000F094FE28220421CC
:100EF000302000F08FFE29220421402000F08AFEDD
:100F00002A220421502000F085FE2B22042160209B
:100F100000F080FE40F2DC5001F091FD02237CA243
:100F20000421002000F004FE062C02D10A2D00D17D
:100F300000E081E700BF70BD10B50C2418E1FFF799
:100F400080FC044609220021084600F063FE0A22C4
:100F50000021102000F05EFE0C220021202000F075
:100F600059FE0D220021302000F054FE2D220221D6
:100F7000002000F04FFE0223AFF2D42219461020C9
:100F800000F0D6FD2C220221202000F043FE362264
:100F90000221302000F03EFE37220221402000F0E6
:100FA00039FE38220221502000F034FE0A2CC5D12F
:100FB00021465CA002F078FF00F09FFD0F22002187
:100FC000084600F027FE03220021102000F022FE38
:100FD00004220021202000F01DFE0E2200213020DE
:100FE00000F018FE0120FFF722FF464951A002F051
:100FF0005BFF00220421104600F00CFE10220421A9
:10100000104600F007FE11220421202000F002FE0D
:1010100003220421302000F0FDFD0422114640206F
:1010200000F0F8FD0E220421502000F0F3FD022014
:10103000FFF7FDFE344944A002F036FF3249314843
:10104000FFF7F2F838BB00F058FD092200210846EE
:1010500000F0E0FD0A220021102000F0DBFD162246
:101060000021202000F0D6FD17220021302000F0C2
:10107000D1FD06222349002000F058FF2021194805
:1010800001F0A3FE40F2DC5001F0D9FC202115480C
:1010900001F09DFE6DE000F030FD242200210846A5
:1010A00000F0B8FD1C220021102000F0B3FD032247
:1010B0000021202000F0AEFD04220021302000F0AD
:1010C000A9FD25220021402000F0A4FD26220021B8
:1010D000502000F09FFD2021024801F076FE40F2F2
:1010E000DC503DE0000C014069203D2025640D0AE4
:1010F000000000006E6577206B6579776F72642061
:10110000585858000A00002010000020202000003D
:1011100020202020202020202020202020202020CF
:10112000202000006E65775F6B65793A25640D0AB3
:10113000000000006E65775F6B6579776F72643AC7
:1011400025730D0A000000006D616B655F73757299
:10115000655F6B6579776F72643A25730D0A0000DD
:1011600001F06DFC2021FE4801F031FE00F0C5FCCD
:10117000E5E600BF10BDF0B585B00027AFF64C31F5
:1011800003C9CDE9010120220021084600F042FDFB
:101190000223AFF658320021102000F0C9FC2122B2
:1011A0000021202000F036FD22220021302000F016
:1011B00031FD23220021402000F02CFD32220021AD
:1011C000502000F027FD33220021602000F022FD96
:1011D00001E10A2001F033FC04A9522001F013F9C7
:1011E0000028F5D19DF811009DF8101040EA012665
:1011F000DCA002F059FE3146AFF6883002F054FE12
:10120000B6F5006F1FD006DCB6F5007F16D0B6F538
:10121000806F22D10DE0B6F5884F05D0A6F5884045
:101220000338002819D113E0AFF6A43002F03CFED9
:1012300018E0AFF6983002F037FE13E0AFF69030CA
:1012400002F032FE0EE0AFF6843002F02DFE09E02F
:10125000AFF6803002F028FE04E0AFF6743002F002
:1012600023FE00BF00BF03A801F0F7F8054625B133
:10127000AFF67C3002F018FE0CE09DF80F000090F5
:101280009DF80E309DF80D209DF80C10AFF68430BF
:1012900002F00AFE9DF80F0000909DF80E309DF8B8
:1012A0000D209DF80C10AFF6783002F0FDFDB84827
:1012B000C0780090B648837842780178AFF67030F5
:1012C00002F0F2FD03A801F036F9054625B1AFF6AC
:1012D000603002F0E9FD03E0AFF6583002F0E4FDC3
:1012E00001F0DAFA054625B1AFF6543002F0DCFD24
:1012F00003E0AFF64C3002F0D7FDA6A002F0D4FD1B
:101300000027002408E003A8005DA149095D884288
:1013100001D0012702E0641C042CF4DB00BF77BB82
:1013200030220221002000F075FC31220221102021
:1013300000F070FC32220221202000F06BFC3322EE
:101340000221302000F066FC3D220221402000F006
:1013500061FC3E220221502000F05CFC20218048EC
:1013600001F033FD40F2DC5001F069FB20217C48A4
:1013700001F02DFD00F0C1FBFFF7DEFD2CE0FFE7E3
:1013800030220221002000F045FC312202211020F1
:1013900000F040FC32220221202000F03BFC3322EE
:1013A0000221302000F036FC34220221402000F0DF
:1013B00031FC35220221502000F02CFC202168480D
:1013C00001F003FD40F2DC5001F039FB20216448BC
:1013D00001F0FDFC00E0FCE600BF05B0F0BD08B583
:1013E0000121082001F000FF2020ADF800001020AE
:1013F0008DF8030003208DF802006946584801F07B
:1014000037FC2021564801F0E2FC08BD08B5012157
:101410000C2001F0E9FE4FF4C850ADF80000282080
:101420008DF8030003208DF802006946694801F039
:101430001FFC4FF47040ADF8000010208DF8030041
:1014400003208DF802006946454801F011FC08BDF3
:101450000C2401F0B7FA4FF4A06002F02DF94FF41C
:10146000165001F028FB00F033FA00F045FC00F0C4
:10147000B9FAFFF7CBFFFFF7B2FF00F0C7FE01F0AC
:1014800024FA01F06FFA642001F0D9FA01F05DFA54
:10149000002000F015FB2021314801F096FC4FF4AC
:1014A0007A7001F0CCFA20212D4801F090FC062240
:1014B00047A1002000F03AFD062245A1082000F0D7
:1014C00035FD02E1FFF7BDF904460622424900203E
:1014D00000F0DAFC06222E49082000F0D5FC3E4838
:1014E00002F042FE38B9FFF727FD00F006FBFEF7D9
:1014F000ACFE00F002FB2D220021084600F08AFB22
:101500000223AFF65C020021102000F011FB2C2218
:101510000021202000F07EFB01220021302000F07D
:1015200079FB02220021402000F074FB03220021FD
:10153000502000F06FFB04220021602000F06AFBC5
:101540002D220221002000F065FB022323A2194670
:10155000102000F0EDFA2C220221202040E00000B3
:10156000000C01402323232323232323232323238A
:10157000232323232323232323232323232323203E
:1015800020BBF1C8A1C8A8CFDE203A0D0A00000098
:101590000600002023232323232323232323232381
:1015A000232323232323232323232323232323230B
:1015B00023232323232323232323232323232323FB
:1015C00023232020BBF1C8A1C8A8CFDE203A0D0AF2
:1015D000000000000008014000000020230000007F
:1015E00000F018FB2E220221302000F013FB2F22E6
:1015F0000221402000F00EFB03220221502000F0C7
:1016000009FB04220221602000F004FB2D220421AA
:10161000002000F0FFFA02232CA20421102000F089
:1016200087FA2C220421202000F0F4FA2022042141
:10163000302000F0EFFA21220421402000F0EAFAE5
:1016400014220421502000F0E5FA15220421602024
:1016500000F0E0FA0A2C05D100F04FFAFFF771FA1A
:1016600000F04BFA0B2C05D100F047FAFFF783FD91
:1016700000F043FA4CBB00F040FA2022002108465B
:1016800000F0C8FA022312A20021102000F050FA44
:1016900021220021202000F0BDFA2222002130204A
:1016A00000F0B8FA23220021402000F0B3FA1422FF
:1016B0000021502000F0AEFA15220021602000F039
:1016C000A9FAFEF7DEFE00F018FAFBE63000000093
:1016D00049430000704700BFFEE700BFFEE700BFC0
:1016E000FEE700BFFEE77047704770477047000095
:1016F0000CB50020019000906C48006840F48030E8
:101700006A49086000BF6948006800F40030009032
:101710000198401C0190009818B90198B0F5A06F8D
:10172000F1D16248006800F4003010B1012000904F
:1017300001E0002000900098012843D15C48006837
:1017400040F010005A4908600846006820F0030085
:1017500008600846006840F002000860534840688E
:10176000524948600846406848600846406840F46E
:10177000806048600846406820F47C104860084655
:10178000406840F4E81048600846006840F0807007
:10179000086000BF4548006800F000700028F9D0DC
:1017A0004248406820F003004049486008464068CD
:1017B00040F00200486000BF3C48406800F00C0068
:1017C0000828F9D10CBD10B5FFF792FF10BD10B578
:1017D0003648006840F00100344908600846406817
:1017E0003449084031494860084600683249084099
:1017F0002E4908600846006820F4802008600846EA
:10180000406820F4FE0048604FF41F008860FFF736
:10181000DAFF4FF000602949086010BD10B50021C3
:1018200000200022214B5B6803F00C0121B1042948
:1018300006D0082928D107E0214B224C236027E05D
:101840001F4B204C236023E0184B5B6803F470109F
:10185000164B5B6803F48032022303EB904022B9FD
:10186000194B4343174C23600DE0104B5B6803F4A6
:10187000003323B1144B4343124C236003E0104B5D
:101880004343104C236003E00D4B0E4C236000BF1C
:1018900000BF064B5B68C3F303130C4CE15C094BC0
:1018A0001B68CB40074C236010BD000000100240B5
:1018B000002002400000FFF8FFFFF6FE08ED00E008
:1018C00000127A001C00002000093D0020000020CA
:1018D00000B585B00121880501F093FC01210820A5
:1018E00001F082FC4FF48060ADF8000003208DF819
:1018F00002001C208DF803006946F74801F0B8F992
:101900004FF40060ADF800006946F34801F0B0F90B
:101910000020ADF808004BF6FF70ADF80A00782003
:10192000ADF80C004FF48060ADF80E000001ADF88A
:101930001000EA48019001A9E94801F044FF0121A3
:10194000E74801F0BEFF05B000BD70B504460D4686
:1019500000BF4FF40031E24802F0DAF80028F8D175
:101960000121DF4801F0D1FF00BFDE49DC4802F071
:10197000ADF80028F9D000227821D94802F01BF8F0
:1019800000BFD949D64802F0A1F80028F9D0214675
:10199000D34802F00AF800BFD349891CD04802F0AE
:1019A00095F80028F8D02946CD4801F0FEFF00BF89
:1019B000CD49891CCA4802F089F80028F8D00121D5
:1019C000C74801F0AEFF70BD10B5044621460020A7
:1019D000FFF7BBFF10BD10B5044621464020FFF7BE
:1019E000B4FF10BD10B54FF47A7001F028F8AE20A6
:1019F000FFF7EAFF2020FFF7E7FF1020FFF7E4FFE3
:101A0000B020FFF7E1FFC820FFF7DEFF0020FFF75F
:101A1000DBFF1020FFF7D8FF4020FFF7D5FF812024
:101A2000FFF7D2FFFF20FFF7CFFFA120FFF7CCFF8A
:101A3000A620FFF7C9FFA820FFF7C6FF3F20FFF74A
:101A4000C3FFA420FFF7C0FFD320FFF7BDFF002096
:101A5000FFF7BAFFD520FFF7B7FFF020FFF7B4FF7D
:101A6000D920FFF7B1FF2220FFF7AEFFDA20FFF702
:101A7000ABFF1220FFF7A8FFDB20FFF7A5FF202018
:101A8000FFF7A2FF8D20FFF79FFF1420FFF79CFFB9
:101A9000AF20FFF799FF10BD70B504460D4605F164
:101AA000B001C8B2FFF790FF102141EA1410FFF710
:101AB0008BFF04F00F0141F00100FFF785FF70BDBF
:101AC00070B50646002415E004F1B001C8B2FFF776
:101AD0007BFF0020FFF778FF1020FFF775FF002540
:101AE00004E03046FFF777FF681CC5B2802DF8DBB5
:101AF000601CC4B2082CE7DB70BD10B50020FFF7F6
:101B0000DFFF10BD10B58D20FFF75EFF1420FFF73B
:101B10005BFFAF20FFF758FF10BD10B58D20FFF71A
:101B200053FF1020FFF750FFAE20FFF74DFF10BD11
:101B30002DE9F0470646894617469A464FF00008B9
:101B400000240025BAF1010F03D0BAF1020F5ED1D3
:101B500025E020E0785D203800F0FF087E2E04DDCF
:101B6000002609F1010000F0FF0949463046FFF761
:101B700093FF002409E008EB48015C4A02EB4101B5
:101B8000085DFFF728FF601CC4B2062CF3DBB01D14
:101B9000C6B2681CC5B2785D0028DBD137E032E000
:101BA000785D203800F0FF08782E04DD002609F16A
:101BB000010000F0FF0949463046FFF76DFF0024A1
:101BC00007E004EB08114A4A505CFFF704FF601C71
:101BD000C4B2082CF5DB09F10100C1B23046FFF7B1
:101BE0005BFF002408E004EB08110831404A505C18
:101BF000FFF7F1FE601CC4B2082CF4DB06F108000C
:101C0000C6B2681CC5B2785D0028C9D100BF00BF4C
:101C1000BDE8F0872DE9F04180460E4617460024C6
:101C20007D0131464046FFF737FF00BF06E03149EE
:101C3000485DFFF7D0FE6D1C601CC4B2102CF6DBB3
:101C4000701CC1B24046FFF727FF002406E0294977
:101C5000485DFFF7C0FE6D1C601CC4B2102CF6DBA3
:101C6000BDE8F0812DE9F05F06460F4690461C4620
:101C7000DDF828A04FF0000BE11704EB5171C910FB
:101C8000A4EBC10131B92046E11704EB5171C1F356
:101C9000C70506E02046E11704EB5171C910491C45
:101CA000CDB23D4614E029463046FFF7F5FEB14679
:101CB0000AE059460BF1010B1AF80100FFF78BFE01
:101CC00009F1010000F0FF09C145F2DB681CC5B253
:101CD000A542E8DBBDE8F09F000C0140801A060039
:101CE000005800400100030082000700564300082E
:101CF0007E4500083000002000B585B00121480570
:101D000001F07FFA0121082001F06EFA4020ADF8C1
:101D1000000003208DF802001C208DF803006946A6
:101D20009B4800F0A5FF8020ADF800006946984868
:101D300000F09EFF0020ADF808004BF6FF70ADF8F4
:101D40000A004FF48060ADF80E000001ADF81000FD
:101D50009048019001A9904801F035FD01218E487D
:101D600001F0AFFD05B000BD10B58B481430008800
:101D700018B989481830008810B188A002F094F88A
:101D800000BF0121844801F0C0FD00BF85498248A1
:101D900001F09CFE0028F9D0A0217F4801F005FE4B
:101DA0000AE081497C4801F0B3FE012804D17E4954
:101DB000794801F0CAFEE4E77C49774801F086FEE5
:101DC0000028EED010BD10B50446FFF7CDFF214628
:101DD000714801F0EAFD00BF7449891C6E4801F0AA
:101DE00075FE0028F8D001216B4801F08EFD00BF80
:101DF0006C49694801F06AFE0028F9D0A1216648C3
:101E000001F0D3FD00BF6749491C634801F05EFE45
:101E10000028F8D00121604801F083FD00BF61492E
:101E20003F315D4801F052FE0028F8D000BF4FF46A
:101E30000031594801F06CFE0128F8D0564801F0F5
:101E4000B6FD10BD70B504460D46FFF78DFF214667
:101E5000514801F0AAFD29464F4801F0A6FD00BFF8
:101E60005249891C4C4801F031FE0028F8D001216C
:101E7000494801F056FD00BF4FF40031464801F0DB
:101E800047FE0128F8D070BD70B506460C461546D1
:101E9000FFF76AFF3146404801F087FD00BF434924
:101EA000891C3D4801F012FE0028F8D001213A4873
:101EB00001F02BFD00BF3B49374801F007FE002829
:101EC000F9D0A121344801F070FD00BF3549491C0B
:101ED000314801F0FBFD0028F8D001212E4801F027
:101EE0002CFD15E03DB900212B4801F026FD012114
:101EF000294801F016FD00BF2A493F31264801F06C
:101F0000E5FD0028F8D0244801F051FD04F8010B4C
:101F10002800A5F10101CDB2E4D100BF4FF400319A
:101F20001D4801F0F5FD0128F8D070BD70B50546DB
:101F30000C461646FFF718FF2946174801F035FDF5
:101F40000CE014F8011B144801F02FFD00BF1749E5
:101F5000891E114801F0BAFD0028F8D03000A6F122
:101F60000101CEB2EDD100BF1049891C0A4801F031
:101F7000ADFD0028F8D00121074801F0D2FC00BFD8
:101F80004FF40031044801F0C3FD0128F8D070BDC2
:101F9000000C0140A0860100005400406572726F81
:101FA00072210A00010003000004001082000700F3
:101FB00010B504469248844205D1012141F2040043
:101FC00001F012F907E00121082001F00DF90121CB
:101FD000880301F016F910BD38B5044688488442DC
:101FE0001AD1E020ADF8000003208DF8020018207F
:101FF0008DF803006946834800F03AFE1020ADF8E2
:1020000000008DF8030069467E4800F031FE102183
:102010007C4800F0DAFE1DE04FF46040ADF80000AF
:1020200003208DF8020018208DF8030069467648D9
:1020300000F01EFE4FF48050ADF8000010208DF827
:1020400003006946704800F013FE4FF480516E485B
:1020500000F0BBFE38BD10B586B004462046FFF741
:10206000A7FF1020ADF810000020ADF804004FF4D9
:102070008270ADF806000020ADF80800ADF80A0047
:10208000ADF80C00ADF80E00ADF812000720ADF869
:10209000140001A9204601F0A5FD2046FFF79CFF92
:1020A0000121204601F088FE0121204601F03FFE7B
:1020B00006B010BD02460B46002100BF108900F09B
:1020C00002000028FAD0481CC1B2C82902DD4FF036
:1020D000FF3070479381002100BF108900F001009C
:1020E0000028FAD0481CC1B2C82902DD4FF0FF30E9
:1020F000EFE790890020ECE702460B46002100BF85
:10210000108900F002000028FAD0481CC1B2C8298A
:1021100002DD4FF0FF307047FF209081002100BFAB
:10212000108900F001000028FAD0481CC1B2C8296B
:1021300002DD4FF0FF30EEE7908918800020EAE7DB
:1021400030B503460C46002124E000BF188900F09A
:1021500002000028FAD0481CC1B244F62060814237
:1021600002DD4FF0FF3030BD14F8010B98810021E3
:1021700000BF188900F001000028FAD018891881E2
:10218000481CC1B244F62060814202DD4FF0FF30AE
:10219000E9E798891000A2F10102D6D100BFE2E779
:1021A00030B503460C46002123E0FF20988108E06B
:1021B000481CC1B244F62060814202DD4FF0FF307E
:1021C00030BD188900F002000028F1D0002108E09D
:1021D000481CC1B244F62060814202DD4FF0FF305E
:1021E000EEE7188900F001000028F1D0988904F882
:1021F000010B1000A2F10102D7D100BFE0E70000FF
:102200000030014000080140000C014010B50121E0
:10221000042000F0E9FFFE48FFF71DFF10BDF8B5F0
:1022200004460D46002000907E2000EA44068DF80A
:1022300000608DF80150012000F001FC1021F548EC
:1022400000F0C5FD02226946F148FFF779FF102131
:10225000F04800F0BAFDF8BD1CB50446002000901F
:102260007E2000EA440040F080000190012000F050
:10227000E6FB1021E74800F0AAFD012201A9E4488D
:10228000FFF75EFF01226946E148FFF789FF102151
:10229000E04800F09AFD9DF800001CBD70B50546B1
:1022A0000C4600262846FFF7D7FF064646EA0401FB
:1022B0002846FFF7B4FF70BD70B505460C460026F2
:1022C0002846FFF7C9FF064626EA04012846FFF71D
:1022D000A6FF70BD2DE9FE4F0646884691469A46F8
:1022E000DDF830B0022002900020019000900C2E0A
:1022F00006D00E2E09D1122001901020009005E08A
:10230000772001903020009000E000BF00BF0198CE
:1023100040F080010220FFF782FF80210420FFF7B8
:10232000CBFF00210120FFF77AFF80210A20FFF771
:10233000B5FF002505E018F805100920FFF76FFF2D
:102340006D1C4D45F7D331460120FFF768FF0C2E79
:1023500003D180210D20FFF7A1FF4FF4487500BF86
:102360000420FFF779FF04466D1E35B104F001002B
:1023700018B9009820400028F2D080210D20FFF7E6
:102380009BFF95B30620FFF767FF00F01B0068BBBB
:10239000002002900198204000F0010008B10120C7
:1023A00002900C2E24D10A20FFF756FF04460C2081
:1023B000FFF752FF00F007072FB1601E07EBC000C8
:1023C000CBF8000002E0E000CBF8000004B90124E3
:1023D000122C00DD1224002505E00920FFF73CFF48
:1023E0000AF805006D1CA542F7D301E00220029017
:1023F00080210C20FFF752FF00210120FFF70FFF83
:102400000298BDE8FE8F70B588B005460C460821DD
:102410000846FFF751FF07210D20FFF700FF0321BA
:102420001420FFF73BFF8DF8085007A802AB0122EC
:1024300002A900900C20FFF74DFF06464EB9079801
:10244000102806D19DF8080020709DF809006070E2
:1024500000E00226304608B070BDF0B587B00546F2
:10246000002708210846FFF727FF00210D20FFF76E
:10247000D6FE80210E20FFF71FFF93208DF8040069
:1024800020208DF8050006A801AB022201A90090CA
:102490000C20FFF71FFF064686B9002407E001A8BD
:1024A000005D285501A8005D4740601CC4B2042CA3
:1024B000F5DB01A8005DB84200D0022680210E2085
:1024C000FFF7ECFE304607B0F0BD2DE9F0410746BE
:1024D0008846154604210520FFF7EEFE0021012065
:1024E000FFF79DFE80210A20FFF7D8FE002405E0BB
:1024F000395D0920FFF793FE601CC4B24445F7DB49
:1025000003210120FFF78BFEFF2400BF0520FFF70A
:10251000A3FE0646601EC4B21CB106F004000028EB
:10252000F4D02220FFF798FE28702120FFF794FEB8
:102530006870BDE8F08170B588B0054693208DF8CD
:10254000080070208DF8090000208DF80E0000248E
:102550000BE0295D02AAA01C11549DF80E00295D14
:1025600048408DF80E00601CC4B2042CF1DB0DF164
:102570000F02072102A8FFF7A8FF08210846FFF76E
:102580009BFE07A802AB092202A900900C20FFF7CE
:10259000A1FE064626B90798182801D1002600E0BA
:1025A0000226304608B070BD2DE9F04387B00646DC
:1025B0000F46904699468DF804608DF8057000240A
:1025C00006E018F8041001AAA01C1154601CC4B243
:1025D000062CF6DB002407E019F8041001AA04F128
:1025E00008001154601CC4B2062CF5DB06A801AB30
:1025F0000C2201A900900E20FFF76CFE05462DB9B4
:102600000820FFF729FE00F0080000B9022503E0CA
:102610000030014000080140284607B0BDE8F083C3
:10262000F0B587B005460E4630208DF804008DF8D1
:1026300005500DF10602022101A8FFF746FF06A88A
:1026400001AB042201A900900C20FFF743FE0746CE
:1026500067B90698902809D1002404E001A8005D1C
:102660003055601CC4B2102CF8DB00E0022738465D
:1026700007B0F0BDF0B587B006460F46A0208DF834
:1026800004008DF805600DF10602022101A8FFF794
:102690001CFF06A801AB042201A900900C20FFF743
:1026A00019FE054645B90698042805D19DF8040091
:1026B00000F00F000A2800D002250DBB002404E022
:1026C000385D01A90855601CC4B2102CF8DB05AABE
:1026D000102101A8FFF7F9FE06A801AB122201A9FB
:1026E00000900C20FFF7F6FD054645B90698042832
:1026F00005D19DF8040000F00F000A2800D0022543
:10270000284607B0F0BD2DE9F04188B007460E46D7
:1027100090468DF808708DF809600DF10A020221CB
:1027200002A8FFF7D2FE07A802AB042202A900907C
:102730000C20FFF7CFFD044644B90798042805D1C3
:102740009DF8080000F00F000A2800D00224E4B928
:10275000002505E018F8050002A94855681CC5B217
:10276000102DF7DB03AA042102A8FFF7AEFE00201C
:10277000079007A802AB062202A900900C20FFF7E1
:10278000A9FD0446022C00D00024F4B9B0208DF835
:1027900008008DF809600DF10A02022102A8FFF776
:1027A00094FE07A802AB042202A900900C20FFF7B8
:1027B00091FD044644B90798042805D19DF8080006
:1027C00000F00F000A2800D00224204608B0BDE81F
:1027D000F08170B588B005460E46C2208DF808001D
:1027E0008DF809500DF10A02022102A8FFF76DFED3
:1027F00007A802AB042202A900900C20FFF76AFD93
:10280000044644B90798042805D19DF8080000F053
:102810000F000A2800D00224CCB900208DF808004F
:102820008DF809008DF80A008DF80B0003AA042129
:1028300002A8FFF74AFE07A802AB062202A90090F1
:102840000C20FFF747FD0446022C00D0002414B1F1
:10285000022008B070BDB0208DF808008DF8096026
:102860000DF10A02022102A8FFF72FFE07A802AB12
:10287000042202A900900C20FFF72CFD044644B965
:102880000798042805D19DF8080000F00F000A28D9
:1028900000D002242046DCE700B587B050208DF838
:1028A000040000208DF805000DF10602022101A8A8
:1028B000FFF70BFE06A801AB042201A900900C2033
:1028C000FFF708FD002007B000BD10B501213C480E
:1028D00000F07BFA0A2000F08EF80121384800F061
:1028E00076FA3C2000F0ABF80121354800F06DFA93
:1028F0004FF4FA7000F07FF80F210120FFF78FFCF2
:10290000022000F09CF83D211120FFF788FC1E21D9
:102910002D20FFF784FC00212C20FFF780FC8D2167
:102920002A20FFF77CFC3E212B20FFF778FC40217A
:102930001520FFF774FC80213320FFF7BDFC4021F8
:102940001520FFF76CFC002010BD10B51420FFF718
:1029500083FC044604F0030018B903211420FFF798
:102960009DFC10BD10B503211420FFF7A5FC10BD80
:1029700010B5044608210846FFF79EFC3D211120B2
:10298000FFF74DFC86211720FFF749FC7F21262009
:10299000FFF745FC1E212D20FFF741FC00212C20D4
:1029A000FFF73DFC8D212A20FFF739FC3E212B202B
:1029B000FFF735FC052000F042F8FFF7C6FF10BD19
:1029C000000C014010B56FF0040000F0C4FE2E486A
:1029D00000682E49B0FBF1F02D49087008460078D8
:1029E00000EB4001C1EBC0104FF6FF7101EAC000DF
:1029F0002849088010BD0146254A12784A434FF005
:102A0000E0235A6100229A611A46126942F00102DB
:102A10001A6100BF4FF0E022106900F001021AB104
:102A200000F48032002AF5D04FF0E022126922F043
:102A300001024FF0E0231A6100229A6170470146BB
:102A4000144A12884A434FF0E0235A6100229A61E7
:102A50001A46126942F001021A6100BF4FF0E022EB
:102A6000106900F001021AB100F48032002AF5D09A
:102A70004FF0E022126922F001024FF0E0231A61C8
:102A800000229A61704700001C00002000127A00AA
:102A90001008002012080020014600BF704700BF48
:102AA000314A128802F04002002AF9D0C2B22E4BFD
:102AB0001B1D1A80704710B586B00446012144F2F0
:102AC000040000F091FB4FF40070ADF814000320F7
:102AD0008DF8160018208DF8170005A9234800F07E
:102AE000C7F84FF48060ADF8140004208DF817008B
:102AF00005A91E4800F0BCF825208DF80000032031
:102B00008DF801008DF8020001208DF80300684661
:102B100000F0D7FD01940020ADF80800ADF80A00E0
:102B2000ADF80C00ADF810000C20ADF80E0001A9B6
:102B30000D4800F000FC012240F225510A4800F047
:102B400092FC0121084800F082FC06B010BD10B5CF
:102B500040F22551044800F06BFD18B1024800F026
:102B6000E7FCC4B210BD000000380140000801407D
:102B70000948804709480047FEE7FEE7FEE7FEE711
:102B8000FEE7FEE7FEE7FEE7FEE7FEE7044805494D
:102B9000054A064B70470000CF17000831010008B6
:102BA00090080020900E0020900A0020900A00203B
:102BB00010B50446CC48844208D10121042000F01D
:102BC0002DFB0021042000F029FB46E0C748844289
:102BD00008D10121082000F021FB0021082000F08D
:102BE0001DFB3AE0C248844208D10121102000F0C8
:102BF00015FB0021102000F011FB2EE0BD4884429F
:102C000008D10121202000F009FB0021202000F044
:102C100005FB22E0B848844208D10121402000F0A1
:102C2000FDFA0021402000F0F9FA16E0B348844292
:102C300008D10121802000F0F1FA0021802000F06D
:102C4000EDFA0AE0AE48844207D10121801500F078
:102C5000E5FA0021A01500F0E1FA10BD10B5012140
:102C6000084600F0DBFA0021012000F0D7FA10BD81
:102C70002DE9F04102460025002600200023002413
:102C8000002791F803C00CF00F0591F803C00CF079
:102C9000100CBCF1000F03D091F802C04CEA0505FE
:102CA00091F800C0BCF1000F31D0146800202BE077
:102CB0004FF0010C0CFA00F3B1F800C00CEA030667
:102CC0009E4220D183004FF00F0C0CFA03F7BC4357
:102CD00005FA03FC4CEA040491F803C0BCF1280F88
:102CE00006D14FF0010C0CFA00FCC2F814C00AE047
:102CF00091F803C0BCF1480F05D14FF0010C0CFA5C
:102D000000FCC2F810C0401C0828D1D31460B1F8F0
:102D100000C0BCF1FF0F34DD546800202EE000F14C
:102D2000080C4FF0010808FA0CF3B1F800C00CEAE7
:102D300003069E4221D183004FF00F0C0CFA03F7DB
:102D4000BC4305FA03FC4CEA040491F803C0BCF14F
:102D5000280F05D100F1080C08FA0CF8C2F814800D
:102D600091F803C0BCF1480F07D100F1080C4FF0F7
:102D7000010808FA0CF8C2F81080401C0828CED3CD
:102D80005460BDE8F0814FF6FF710180022181702F
:102D90000421C17070470246002093680B400BB1BC
:102DA000012000E0002070470146886880B270472B
:102DB00002460020D3680B400BB1012000E0002048
:102DC00070470146C86880B2704701617047416131
:102DD00070470AB1016100E041617047C16070470E
:102DE0004FF480320A438261816182618269826923
:102DF000704702460020434B18684FF68073184016
:102E000040EA021008433F4B186070473E49C861D2
:102E10007047F0B50A46002300240021002500F089
:102E20000046B6F1004F02D1364EF16901E0354E51
:102E30007168C0F3034583B200F44016B6F5401F35
:102E400008D121F070612F4E766826F070662D4F04
:102E50007E6012E000F48016B6F5801F06D10326CE
:102E600006FA05F4A14341F0706106E0460D360113
:102E700003FA06F6B14341F0706122B1460D360106
:102E800003FA06F6314300F00046B6F1004F02D1D6
:102E90001C4EF16101E01B4E7160F0BD30B50022A7
:102EA0008B071C0F0F2303FA04F2164B08338C1008
:102EB00053F824309343134C08348D1044F82530D4
:102EC00023468C1053F824308C07240F00FA04F4A6
:102ED00023430C4C08348D1044F8253030BD0A498A
:102EE000DC3108607047000000080140000C014020
:102EF000001001400014014000180140001C014076
:102F0000002001400000014000002042DF4800682E
:102F100040F00100DD49086008464068DC4908408F
:102F2000DA49486008460068DA490840D74908602D
:102F30000846006820F4802008600846406820F4B5
:102F4000FE0048604FF41F0088607047CF49096851
:102F500021F48031CD4A11601146096821F48021A5
:102F60001160B0F5803F03D0B0F5802F0ED106E0A0
:102F7000C649096841F48031C44A116007E0C34979
:102F8000096841F4A021C14A116000E000BF00BF00
:102F9000704710B501460022002300204A11012A83
:102FA00002D1BA4C236806E0022A02D1B74C236A48
:102FB00001E0B64C636A01F01F02012494401C40FA
:102FC0000CB1012000E0002010BD38B500200090B9
:102FD0000024002500BF3120FFF7DBFF05460098E5
:102FE000401C00900098B0F5A06F01D0002DF2D0E9
:102FF0003120FFF7CEFF08B1012400E00024204675
:1030000038BD01460020A14A106820F0F80040EACF
:10301000C10010607047A049086070470246002058
:103020009A4B586820F47C1042EA01031843974BEE
:103030005860704798490866704701460020934AD7
:10304000506820F003000843506070478F48406884
:1030500000F00C007047014600208C4A506820F0B8
:10306000F00008435060704701460020874A5068CE
:1030700020F4E06008435060704701460020834A16
:10308000506820F4605040EAC1005060704729B198
:103090007E4A527A02437D4B5A7204E07B4A527A4E
:1030A00082437A4B5A7270477B49D8310860704727
:1030B00001460020754A506820F4404008435060A3
:1030C00070470021714A20321170704A82F8201036
:1030D000012802D004280AD104E001216B4A2032E1
:1030E000117005E00521694A2032117000E000BF2F
:1030F00000BF70476949086070476449096A014325
:10310000624A11627047654944390860704730B5BA
:1031100000210022002400235C4D6D6805F00C01A5
:1031200021B1042905D0082923D105E05C4D0560B3
:1031300022E05B4D05601FE0544D6D6805F4701290
:10314000524D6D6805F48034022505EB92421CB99E
:10315000544D554305600BE04C4D6D6805F400354A
:103160001DB1504D5543056002E04D4D554305607E
:1031700002E04B4D056000BF00BF444D6D6805F097
:10318000F0010909484D6B5C0568DD4045603F4D25
:103190006D6805F4E061090A434D6B5C4568DD40EC
:1031A00085603A4D6D6805F46051C90A3E4D6B5C0F
:1031B0004568DD40C560354D6D6805F44041890BBB
:1031C0003A4D6B5CC568B5FBF3F5056130BD29B1BF
:1031D0002E4A526902432D4B5A6104E02B4A526930
:1031E00082432A4B5A61704729B1284A92690243A7
:1031F000264B9A6104E0254A92698243234B9A61E7
:10320000704729B1214AD2690243204BDA6104E0B8
:103210001E4AD26982431D4BDA61704729B11B4AAD
:10322000D2680243194BDA6004E0184AD26882433C
:10323000164BDA60704729B1144A12690243134BE6
:103240001A6104E0114A12698243104B1A617047F7
:1032500012494039086070470F49C86470470B49EC
:10326000C87170470948406A40F080700749486259
:10327000704701460020054A92680A400AB10120C1
:1032800000E000207047014988727047001002403A
:103290000000FFF8FFFFF6FE0000424280044242B9
:1032A00000127A0000093D001A0800202A080020B8
:1032B00010B50446FB48844209D101218803FFF779
:1032C000ADFF00214FF48040FFF7A8FF32E0F64841
:1032D000844209D101214804FFF7ADFF00214FF4DA
:1032E0000030FFF7A8FF25E0F048844209D1012112
:1032F0008804FFF7A0FF00214FF48020FFF79BFF19
:1033000018E0EB48844209D10121C804FFF793FF7C
:1033100000214FF40020FFF78EFF0BE0E5488442C8
:1033200008D101210805FFF786FF00214FF4801026
:10333000FFF781FF10BD2DE9F04786B005460E4628
:103340000024A24600BFA1460027B08900B100BFFB
:103350002F462C8A4CF6FF700440F08804432C82E0
:10336000AC894EF6F3100440B08831890843718966
:1033700008430443AC81AC8A4FF6FF400440B08957
:103380000443AC8201A8FFF7C2FEC648874202D1BF
:10339000DDF810A001E0DDF80CA0A88900F40040E1
:1033A00040B10AEBCA0000EB0A1031684900B0FBDB
:1033B000F1F807E00AEBCA0000EB0A103168890057
:1033C000B0FBF1F86420B8FBF0F00401200964219F
:1033D00001FB1089A88900F4004040B1322000EBC5
:1033E000C900B0FBF1F000F00700044308E0322010
:1033F00000EB09106421B0FBF1F000F00F00044372
:103400002C8106B0BDE8F0874FF416510160002111
:103410008180C18001810C2141810021818170471F
:1034200010B502460020108A4FF2FF0318400B88A7
:103430004C8823438C882343CC8823431843108231
:1034400010BD0021018041808180C180704721B181
:10345000828942F40052828104E082894DF6FF7332
:103460001A4082817047F0B50346002400260025EB
:10347000002040F66A17B94200D100BF1846C1F3D8
:10348000421401F01F06012707FA06F5012C01D1AD
:103490000C3004E0022C01D1103000E014301AB1DD
:1034A00007682F43076002E00768AF430760F0BD7D
:1034B0001AB1838A0B43838202E0838A8B4383821F
:1034C0007047028A4FF6F0731A400282028A0A435A
:1034D0000282704782894FF2FF731A40828182898B
:1034E0000A438281704721B1828942F002028281BF
:1034F00004E082894FF6FD731A4082817047028A88
:103500004FF6DF731A400282028A0A430282704732
:1035100021B1028A42F48042028204E0028A4BF620
:10352000FF731A4002827047C1F30802828070471D
:1035300001468888C0F308007047818941F0010185
:1035400081817047028BD2B20283028B42EA012250
:1035500002837047028B02F47F420283028B0A438C
:103560000283704721B1828A42F02002828204E005
:10357000828A4FF6DF731A408282704721B1828AB5
:1035800042F01002828204E0828A4FF6EF731A4002
:103590008282704721B1828A42F00802828204E06E
:1035A000828A4FF6F7731A408282704721B182896E
:1035B00042F40042828103E08289C2F30E028281DA
:1035C000704721B1828A42F40062828204E0828ADA
:1035D0004FF2FF731A4082827047828A4FF6FB7364
:1035E0001A408282828A0A438282704721B1828A8B
:1035F00042F00202828204E0828A4FF6FD731A4092
:103600008282704702460020B1F5007F00D100BFE2
:1036100013880B400BB1012000E00020704701F43B
:103620000072B2F5007F00D100BFCA43028070472C
:1036300070B50246002400230025002040F66A16DB
:10364000B14200D100BFC1F3421501F01F030126B2
:1036500006FA03F3012D02D19689334006E0022DCC
:1036600002D1168A334001E0968A33400C120126BB
:1036700006FA04F41688344013B10CB1012000E0BE
:10368000002070BD10B50022002340F66A14A1424C
:1036900000D100BF0A1201249440A3B2DC4304808D
:1036A00010BD0000003801400044004000480040C8
:1036B000004C00400050004031490143314A116044
:1036C000704770B5002100230F22C47804B32D4C3D
:1036D000246804F4E064C4F5E064210AC1F1040341
:1036E000CA40447804FA03F1847814402143090164
:1036F000254C0678A155047804F01F050124AC4040
:1037000005786D11AD0005F1E025C5F8004109E02F
:10371000047804F01F050124AC401C4D0678761196
:1037200045F8264070BD1A4A0A400243154B1B1F3C
:103730001A60704739B1134A121D12680243114BC7
:103740001B1D1A6006E00F4A121D126882430D4BC2
:103750001B1D1A607047042808D14FF0E021096949
:1037600041F004014FF0E022116107E04FF0E02149
:10377000096921F004014FF0E02211617047000057
:103780000000FA050CED00E000E400E080E100E05C
:1037900080FFFF1F10B50446F748844209D101217C
:1037A0004805FFF748FD00214FF40010FFF743FDE7
:1037B00008E001218805FFF73EFD00214FF480005D
:1037C000FFF739FD10BD2DE9F04385B004460D46E5
:1037D0000026B1460427DFF8A483A6884FF6C07000
:1037E00006406846FFF793FCDDF80880E448B8FB24
:1037F000F0F01FFA80F946EA0906A68020884FF605
:10380000FE71084020800026DE49286888420CD8D6
:1038100028684000B8FBF0F087B2042F00DA0427D4
:103820003E4309F10100208427E0E8884BF6FF7150
:10383000884206D1286800EB4000B8FBF0F087B260
:1038400009E0286800EBC00101EB0010B8FBF0F0C4
:1038500087B247F48047C7F30B0008B947F0010768
:1038600047F4004006434FF4967009FB00F04FF414
:103870007A7190FBF1F0401C2084A683208840F0F0
:103880000100208026884FF6F5300640A888698917
:10389000084306432680A88929890843208105B06A
:1038A000BDE8F08341F288310160002181804BF650
:1038B000FF71C1800021018141814FF480418181EC
:1038C000704721B1028842F00102028004E00288C0
:1038D0004FF6FE731A400280704721B1828842F48D
:1038E0000062828004E082884FF2FF731A40828077
:1038F000704721B1828842F48052828004E082883D
:103900004EF6FF731A408280704721B1028842F45C
:103910008072028004E002884FF6FF631A40028042
:10392000704721B1028842F40072028004E00288EC
:103930004FF6FF531A400280704721B1028842F4CB
:103940008062028004E002884FF6FF331A40028052
:1039500070470A46002181894FF60173194002F031
:10396000FE0319438181704721B1828942F001022F
:10397000828104E082894FF6FE731A40828170478B
:1039800021B1028842F04002028004E002884FF632
:10399000BF731A40028070471AB183880B4383803B
:1039A00002E083888B438380704701827047014621
:1039B000088AC0B2704712B141F0010102E04FF62F
:1039C000FE7319400182704708B50246002000903E
:1039D00000920098084400900098008808BD21B12A
:1039E000028842F40042028003E00288C2F30E0221
:1039F00002807047B1F5006F04D1028842F4006282
:103A0000028004E002884FF2FF731A400280704780
:103A1000B1F5005F04D1028842F40052028004E054
:103A200002884DF6FF731A400280704721B1028868
:103A300042F48052028004E002884EF6FF731A407E
:103A400002807047B1F5006F04D1028842F4006231
:103A5000028004E002884FF2FF731A400280704730
:103A600021B1028842F02002028004E002884FF671
:103A7000DF731A40028070470146088B00127047BE
:103A800021B1028842F01002028004E002884FF661
:103A9000EF731A400280704721B9028842F0800219
:103AA000028004E002884FF67F731A40028070475C
:103AB000B1F5804F05D0828B4BF6FF731A4082839D
:103AC00003E0828B42F480428283704770B50246E5
:103AD0000024002500230020958A138B1B0445EA4F
:103AE000030626F07F4404EA01068E4201D101203C
:103AF00000E0002070BD10B5014600200023002228
:103B00008B8A0A8B120443EA020424F07F4010BD22
:103B10000CB50246002000230193009300920B0F86
:103B2000019321F07F41019B1BB1009B1433009353
:103B300003E0090C009B18330093009B1B680B40AB
:103B40000BB1012000E000200CBD002221F07F42DB
:103B5000D3438382704730B5024600200023948807
:103B600001F0E06504EA154321F07F41948A0C409E
:103B700054B14BB1012008E00054004000127A001B
:103B800040420F00A0860100002030BD002221F03D
:103B90007F42D3438382704710B50446BE488442B7
:103BA00008D101218014FFF739FB0021A014FFF791
:103BB00035FB16E0B948844208D101210014FFF713
:103BC0003AFB00212014FFF736FB0AE0B448844298
:103BD00007D10121C013FFF72EFB0021E013FFF7EF
:103BE0002AFB10BD10B50022028802F441520B8856
:103BF0004C8823438C882343CC8823430C8923435C
:103C00004C8923438C892343CC8923431A43028064
:103C1000838B4FF2FF74234083830B8A038210BD92
:103C20002DE9F04F85B005460C464FF000090227FC
:103C30004FF000084FF0010B0026B246A88B4FF260
:103C400040010840A88302202884B5F81C90A06891
:103C5000022801D100BF38E0A08810B94FF0010B55
:103C600001E04FF0020B8D48854200D100E000BF1B
:103C70006846FFF74CFADDF800A0E088B0F5007F59
:103C80000AD14FEA1A2000EB80004000A168B0FB87
:103C9000F1F0401D86B20BE04FEA4B10BAFBF0F09A
:103CA00000EB80004000A168B0FBF1F0401D86B23F
:103CB0000A20B6FBF0F606F00108A6EB0800C0F3F8
:103CC0004F074FF6FF7000EA0828022F01DBFF2F95
:103CD00002DD02274FF00008E08840EA0800384380
:103CE0002884A088A1890843618808432188084363
:103CF00040F4006040EA0909A5F81C9005B0BDE851
:103D0000F08F0021018041808180C180018141814B
:103D10008181C1810721018270470021018041809A
:103D20008180C1800221816000218181704721B1A1
:103D3000028842F04002028004E002884FF6BF731E
:103D40001A400280704721B1828B42F480628283E4
:103D500004E0828B4FF6FF331A408283704730B500
:103D6000002400230C110125A540ABB21AB18588AF
:103D70001D43858002E085889D43858030BD1AB152
:103D800083880B43838002E083888B438380704762
:103D9000818170470146888970474FF6FF629142E2
:103DA00004D0028842F48072028004E002884FF658
:103DB000FF631A400280704721B1828842F00402FA
:103DC000828004E082884FF6FB731A40828070473D
:103DD00002884FF2FF731A40028002880A43028071
:103DE0007047018841F480510180704721B10288F9
:103DF00042F40052028004E002884DF6FF731A403C
:103E00000280704702460020012901D0108B00E09B
:103E1000908A70470146088A7047B1F5804F04D1F7
:103E2000028842F48042028004E002884BF6FF736D
:103E30001A40028070470246002013890B400BB1E4
:103E4000012000E000207047CA4302817047F0B5AE
:103E50000246002000240023002501F00F07012660
:103E6000BE40B4B20B1101269E40B3B2968806EA5A
:103E700003051689264016B10DB1012000E000208F
:103E8000F0BD10B5002201F00F040123A3409AB247
:103E9000D343038110BD00000030014000380040D2
:103EA000003C0040704700000FB4044910B503AA5D
:103EB000029800F0EBF910BC5DF814FB1408002028
:103EC00070B5044685690068C10601D5302600E05A
:103ED0002026C00707D070BDD4E9012130469047A5
:103EE000206A401C20626D1EF6D570BD70B5044678
:103EF00085690078C00707D170BDD4E90121202071
:103F00009047206A401C20626D1EF6D570BD70B5CA
:103F10000C460546012A05D02878800600D5EA69B6
:103F2000002302E0012305E05B1C934202D2E05C27
:103F30000028F9D1A869E618C01AA861286A1844AF
:103F400028622846FFF7BCFF04E0D5E9012114F8F8
:103F5000010B9047B442F8D32846FFF7C7FF70BD66
:103F60002DE9F0410646002410687529314616A552
:103F700010D0AFF30080002802DA404213A507E01A
:103F800031688A0701D512A502E0490704D511A5B9
:103F9000012401E0AFF3008000210A2206F124078A
:103FA00009E0B0FBF2FCB0FBF2F302FB1C00303086
:103FB00078541846491C0028F3D123462A46304637
:103FC000BDE8F04100F0F3B8000000002D00000053
:103FD0002B0000002000000070B504460D4621466D
:103FE0001068AFF300802188090502D50F4A7A4492
:103FF00002E00E4A7A440E32002104F1240305E067
:1040000000F00F060009965D5E54491C0028F7D1A8
:1040100020780023000704D5702D02D009B10223B7
:1040200011322046BDE8704000F0C1B87C0B0000A2
:104030002DE9F05F894604464FF0000ADFF824B10D
:10404000FB44C0F820A02046E168884700287DD0C6
:10405000252806D0D4E901219047206A401C20621F
:10406000F1E700255F462046E1688847202806469C
:1040700007DB312E05D2B81910F8200C08B1054322
:10408000F1E7A80701D525F00405C4F81CA0002716
:10409000C4F818A02A2E09D0304600F055F938B3DC
:1040A00004EB8708303EC8F8186019E059F8041B83
:1040B000204604EB87029161E1688847012F06469C
:1040C00018D1E069002820DA25F020051DE0D8F895
:1040D000180000EB800006EB40003038C8F81800EC
:1040E0002046E1688847064600F02EF90028EED108
:1040F000012F0AD02E2E08D12046E16888477F1C68
:104100000646022F45F02005C4DBA069002803DA2B
:10411000404245F00105A061E80701D025F01005F7
:10412000A6B1A6F14100192802D8203645F4006551
:104130004A463146204625604D46FCF757F860B1A7
:10414000012807D0ED1D25F0070000E007E000F191
:10415000080978E705F1040975E730467AE7206A2F
:10416000BDE8F09F520B000010B5431C02E010F8B0
:10417000011B71B18107FAD14FF0013202C88C1ACC
:104180008C4314EAC211F9D0C01A0A0603D0C01E2B
:1041900010BDC01A10BD0A0401D0801E10BD090256
:1041A000FCD0401E10BD70477047704770472DE926
:1041B000F0470D4699469246044600F124080168EE
:1041C000880604D5E06921F01001216000E001209B
:1041D000A84201DD471B00E00027A1697A1902EB24
:1041E0000900081AA0612078C00602D42046FFF713
:1041F00067FE002608E0D4E901211AF8060090477E
:10420000206A401C761C20624E45F4DB2078C006F4
:104210000AD52046FFF754FE06E0D4E901213020FC
:104220009047206A401C2062381EA7F10107F4DC89
:1042300007E0D4E9012118F805009047206A401CE6
:104240002062281EA5F10105F3DC2046FFF74EFE93
:104250002078000602D50220BDE8F0870120FBE7A8
:1042600010B5436913B1AFF3008001E0FFF74FFED3
:10427000012010BD127800F124010A7000224A705A
:104280000122EDE711684FF0FF32E9E7074B70B507
:104290000D467B4400F011F80446284600F020F853
:1042A00010B14FF0FF3070BD204670BD09E8FFFF30
:1042B00001694A1C02610878704700B58FB0CDE9EA
:1042C00001310021059105497944CDE903101146DA
:1042D0006846FFF7ADFE0FB000BD0000E5FFFFFF31
:1042E000007B00F080007047754600F029F8AE466C
:1042F00005006946534620F00700854618B020B5F2
:10430000FEF744FCBDE820404FF000064FF00007E8
:104310004FF000084FF0000B21F00701AC46ACE86D
:10432000C009ACE8C009ACE8C009ACE8C0098D46DA
:1043300070470446AFF300802046FBF76FFF000094
:10434000004870473008002030380A2801D2012088
:104350007047002070470000000000000000002FA0
:10436000000000000700070000147F147F140024E1
:104370002A7F2A120062640813230036495522500E
:1043800000000503000000001C2241000000412243
:104390001C000014083E08140008083E080800002D
:1043A00000A0600000080808080800006060000025
:1043B000002010080402003E5149453E0000427FA3
:1043C0004000004261514946002141454B310018EF
:1043D00014127F10002745454539003C4A494930B1
:1043E000000171090503003649494936000649496B
:1043F000291E000036360000000056360000000876
:104400001422410000141414141400004122140852
:1044100000020151090600324959513E007C121137
:10442000127C007F49494936003E41414122007FCC
:104430004141221C007F49494941007F0909090186
:10444000003E4149497A007F0808087F0000417F0B
:104450004100002040413F01007F08142241007FBD
:1044600040404040007F020C027F007F0408107F24
:10447000003E4141413E007F09090906003E41518D
:10448000215E007F0919294600464949493100014A
:10449000017F0101003F4040403F001F2040201F9E
:1044A000003F4038403F0063140814630007087061
:1044B000080700615149454300007F414100005514
:1044C0002A552A55000041417F00000402010204E0
:1044D00000404040404000000102040000205454CD
:1044E0005478007F4844443800384444442000381D
:1044F0004444487F00385454541800087E0901028F
:104500000018A4A4A47C007F080404780000447D63
:104510004000004080847D00007F1028440000009F
:10452000417F4000007C04180478007C0804047873
:1045300000384444443800FC24242418001824245F
:1045400018FC007C0804040800485454542000045B
:104550003F444020003C4040207C001C2040201C68
:10456000003C4030403C004428102844001CA0A0DF
:10457000A07C004464544C4414141414141400001B
:10458000000000000000000000000000000000002B
:1045900000F80000000000000033300000000010B0
:1045A0000C06100C0600000000000000000040C0D7
:1045B0007840C0784000043F04043F0404000070C9
:1045C00088FC08300000001820FF211E0000F008C1
:1045D000F000E018000000211C031E211E0000F066
:1045E0000888700000001E212324192721101016AE
:1045F0000E000000000000000000000000000000AD
:1046000000E018040200000000071820400000022B
:104610000418E0000000004020180700000040409F
:1046200080F0804040000202010F01020200000001
:1046300000F0000000000101011F01010100000065
:1046400000000000000080B07000000000000000CA
:104650000000000000000001010101010101000053
:1046600000000000000000303000000000000000EA
:10467000000080601804006018060100000000E0DF
:1046800010080810E000000F102020100F0000108C
:1046900010F8000000000020203F202000000070E3
:1046A00008080888700000302824222130000030DB
:1046B0000888884830000018202020110E000000D3
:1046C000C02010F8000000070424243F240000F854
:1046D0000888880808000019212020110E0000E039
:1046E000108888180000000F112020110E000038DB
:1046F0000808C83808000000003F000000000070F3
:10470000880808887000001C222121221C0000E07B
:1047100010080810E0000000312222110F000000F4
:1047200000C0C000000000000030300000000000A9
:104730000080000000000000806000000000000019
:1047400080402010080000010204081020004040B2
:1047500040404040400004040404040404000008F5
:1047600010204080000000201008040201000070AA
:1047700048080808F0000000003036010000C03092
:10478000C828E810E0000718272423140B000000B5
:10479000C038E0000000203C23020227382008F83F
:1047A000888888700000203F202020110E00C03033
:1047B000080808083800071820202010080008F80A
:1047C00008080810E000203F202020100F0008F803
:1047D0008888E8081000203F20202320180008F8CF
:1047E0008888E8081000203F200003000000C03047
:1047F00008080838000007182020221E020008F8C8
:1048000008000008F808203F210101213F2000088E
:1048100008F8080800000020203F202000000000C9
:104820000808F8080800C08080807F00000008F8B1
:1048300088C028180800203F20012638200008F8EA
:10484000080000000000203F20202020300008F851
:10485000F800F8F80800203F003F003F200008F86B
:1048600030C00008F808203F200007183F00E01083
:1048700008080810E0000F10202020100F0008F892
:1048800008080808F000203F210101010000E010A5
:1048900008080810E0000F18242438504F0008F8CA
:1048A000888888887000203F2000030C302000702A
:1048B0008808080838000038202121221C00180828
:1048C00008F8080818000000203F2000000008F841
:1048D00008000008F808001F202020201F0008788A
:1048E000880000C83808000007380E010000F808EA
:1048F00000F80008F800033C0700073C0300081814
:1049000068808068180820302C03032C3020083879
:10491000C800C83808000000203F20000000100830
:104920000808C83808002038262120201800000078
:1049300000FE020202000000007F40404000000C28
:1049400030C000000000000000010638C000000276
:104950000202FE000000004040407F000000000016
:104960000402020204000000000000000000000039
:104970000000000000008080808080808080000235
:104980000204000000000000000000000000000021
:104990008080808000000019242222223F2008F815
:1049A000008080000000003F112020110E00000058
:1049B000008080800000000E1120202011000000E7
:1049C00000808088F800000E112020103F20000099
:1049D000808080800000001F22222222130000809D
:1049E00080F0888888180020203F202000000000E8
:1049F000808080808000006B94949493600008F81D
:104A0000008080800000203F210000203F200080A7
:104A10009898000000000020203F202000000000A7
:104A200000809898000000C08080807F000008F817
:104A3000000080808000203F24022D3020000008EC
:104A400008F8000000000020203F202000008080A7
:104A5000808080808000203F20003F20003F8080B9
:104A6000008080800000203F210000203F200000C7
:104A7000808080800000001F202020201F00808078
:104A800000808000000080FFA12020110E000000A7
:104A9000008080808000000E112020A0FF80808098
:104AA00080008080800020203F2120000100000045
:104AB000808080808000003324242424190000801A
:104AC00080E0808000000000001F20200000808027
:104AD000000000808000001F202020103F208080E8
:104AE00080000080808000010E3008060100808078
:104AF0000080008080800F300C030C300F0000809D
:104B00008000808080000020312E0E3120008080C7
:104B100080000080808080818E70180601000080F7
:104B20008080808080000021302C22213000000015
:104B30000000807C020200000000003F40400000B6
:104B40000000FF00000000000000FF000000000265
:104B5000027C800000000040403F00000000000692
:104B600001010202040400000000000000003031D6
:104B70003233343536373839414243444546403084
:104B80005800303132333435363738396162636436
:104B90006566403078000400000800000000000056
:104BA00000020001000010002323232323232323DA
:104BB00023232323232323232323232323232323C5
:104BC00023232323232323232323232323232323B5
:104BD0002323232323232020D0C2BFA8B4E6B4A2DA
:104BE000BFA8BAC5D0C5CFA23A0D0A000C4C000828
:104BF00000000020300800006C0100088C51000803
:104C00003008002060060000D001000802130001F7
:104C100012010111077004A24A04121012020304C7
:104C2000060708094042CC0000445454547F041342
:104C3000444025100C7F201000FF15151555957F59
:104C400033601F88681FC80810C85452D1129408D6
:104C5000D01000091909FF0500FF1292FF005F80C4
:104C60007F4D5004E21CE00B1007804020100C0325
:104C7000471025030C3040808000108C4404E4046D
:104C800095A64424148444940C0002027A414143C2
:104C9000427E42424243F86E100E0484E45C44C4F7
:104CA0000002F2828282FE30100902017F10103F62
:104CB00000080110054888403F51100F60F8074078
:104CC00020180F08C80808281800C713FF00621230
:104CD000407D501E010618001010F01F10F00080DB
:104CE0008282E2928A8680004022150816610000C6
:104CF000409D011EE0100980A0908E888888FF04E6
:104D0000138888B01280C113180739133F4001245B
:104D10000470004021100440A09E9F20059EA0200A
:104D20002053100B3F908840432C10284641B01070
:104D300009001715D55557557D041004D515177062
:104D4000400540407F5501127F42201C00404454E2
:104D500065C664544400FC4444C442400020124AE6
:104D6000827F020A92601FC906400020F5ECA3363C
:104D7000360E011E804580540A2010E82724E434B2
:104D80002CE080440A80601F09093F49897F002583
:104D9000D972FF5324043F9048231405071820407C
:104DA0000014080202C2020202FE204404828202AF
:104DB0000051042101011F6015B942823D214315B4
:104DC0005090058040300F71380F20102CE72424BC
:104DD00000E22C20BF2028E6CA100C7F2111804F52
:104DE00020100F10204F802700F8BA18090808FF7C
:104DF00008090AC8082F280E1F0010201F80402114
:104E000016182641F84916F82C18051010FF102B1B
:104E10001570280C30101F088848300E0140805F44
:104E2000300A4030EF246448487F48043340005F34
:104E3000200400FF49016AFF402004809E92012265
:104E40009E6F1D2003179484AE18070F142444840A
:104E500084801F14D43E031809FC525252D31210FE
:104E60001030275057FC1900175750000510A0B7F5
:104E70005838AF2005020C8060F449DF154F2B7EB7
:104E800001831A06DD25601004905234BB200634DD
:104E90005280708FCA140900829A566322528E275C
:104EA0001004330C33201240B92C0BFF484842A2A7
:104EB0009E82A2C2BE2F0310081F207F4444404F91
:104EC000D11F484FD0033007FE225A8600FEC0365D
:104ED000FE572C0D04080700FF4020030C1422414C
:104EE000F0033C0BFE121212F212121E00F05B03D2
:104EF0002C0C0E013F0101FF11211F000F6403451F
:104F0000C833FF440171D0151A2C05020408106043
:104F1000032D20033E8041031D440315C0280C408F
:104F2000201F2040504C4340405F001C060010886A
:104F3000C433860318044242C2D31A40C045D96D17
:104F4000A003500702E2222222FE041AE2411007C7
:104F5000FF0008060116043F024CC303195D100848
:104F6000028242F20E42820A15C03C040804020486
:104F7000042DC3042A0C993404FE02129E400492AC
:104F80001202E12C0400001F1F033E1F03042C0823
:104F90004040C05F5555D5900331902C0E20603FA6
:104FA000251515FF904729112D43C00319323218DA
:104FB000351C05089020C0F1041E81020440044005
:104FC00020136719803101400421222C0921E04D72
:104FD000E004300601020418603F1C0AF807109034
:104FE00010111610101F053DA0041C054040415E25
:104FF0003C041F4E410004051FC01980380C24805A
:10500000E49C105454FF547C1080180C512618272F
:105010004445455F454544601C0910FF9020988831
:1050200088E9A7041007A89800024281D6340880B6
:10503000844B281028476F300CF807F0A0904C578D
:1050400024A4544CD03C0CFF001F809252492924C8
:105050001208400411013C06FC4030CC0B09033D12
:10506000DF052F10081F032C04081621C0031C079E
:105070000000FC54565521051F54FCBD0525AA34DB
:105080000A23222212120A46827F012D80054C0B30
:105090008040B08E80808798608080053DA4034D5D
:1050A00062052F02FA9804174020F25C154C50203C
:1050B000400008184884443F404458414E605847D7
:1050C000404004100704C40404FC04013D40042FC4
:1050D0001048240428047F4141804C0540301E10B4
:1050E0009E031D3E03157F240F814121110D0301F5
:1050F000030D1121418181DF1C08FA02FE4020D8F6
:1051000017EA051D600380078047300F1067C0292C
:105110001F1D7F043B0202208A02A01D96062E0658
:10512000E005C101FD8E031DAC047A7CE115B018C9
:10513000058090884600162F25430402200D1B0091
:1051400003116043BEA20152BE60130605EA340596
:105150004484443C3F4B80829E1D7F032120600E8F
:10516000404022241048807F0408182422500D1942
:1051700040070D3EE004DD08081DF6076DFA070044
:0C51800007000204060800000000000008
:0400000508000131BD
:00000001FF
